{
  "contractName": "Main",
  "abi": [
    {
      "constant": true,
      "inputs": [
        {
          "name": "documentId",
          "type": "uint256"
        }
      ],
      "name": "documentVersionCount",
      "outputs": [
        {
          "name": "",
          "type": "uint256"
        }
      ],
      "payable": false,
      "stateMutability": "view",
      "type": "function"
    },
    {
      "constant": false,
      "inputs": [
        {
          "name": "documentId",
          "type": "uint256"
        },
        {
          "name": "versionId",
          "type": "uint256"
        }
      ],
      "name": "signVersion",
      "outputs": [],
      "payable": false,
      "stateMutability": "nonpayable",
      "type": "function"
    },
    {
      "constant": true,
      "inputs": [
        {
          "name": "documentId",
          "type": "uint256"
        }
      ],
      "name": "documentAuthors",
      "outputs": [
        {
          "name": "",
          "type": "address[]"
        }
      ],
      "payable": false,
      "stateMutability": "view",
      "type": "function"
    },
    {
      "constant": false,
      "inputs": [
        {
          "name": "documentId",
          "type": "uint256"
        },
        {
          "name": "content",
          "type": "bytes32"
        }
      ],
      "name": "addVersion",
      "outputs": [],
      "payable": false,
      "stateMutability": "nonpayable",
      "type": "function"
    },
    {
      "constant": false,
      "inputs": [
        {
          "name": "content",
          "type": "bytes32"
        },
        {
          "name": "authors",
          "type": "address[]"
        }
      ],
      "name": "createDocument",
      "outputs": [],
      "payable": false,
      "stateMutability": "nonpayable",
      "type": "function"
    },
    {
      "constant": true,
      "inputs": [],
      "name": "authorOfDocuments",
      "outputs": [
        {
          "name": "",
          "type": "uint256[]"
        }
      ],
      "payable": false,
      "stateMutability": "view",
      "type": "function"
    },
    {
      "constant": true,
      "inputs": [
        {
          "name": "documentId",
          "type": "uint256"
        },
        {
          "name": "versionId",
          "type": "uint256"
        }
      ],
      "name": "documentVersion",
      "outputs": [
        {
          "name": "content",
          "type": "bytes32"
        },
        {
          "name": "signedBy",
          "type": "address[]"
        }
      ],
      "payable": false,
      "stateMutability": "view",
      "type": "function"
    }
  ],
  "bytecode": "0x6060604052341561000f57600080fd5b610cf48061001e6000396000f300606060405260043610610083576000357c0100000000000000000000000000000000000000000000000000000000900463ffffffff1680630464029a14610088578063342413f1146100bf57806343c75408146100eb5780638f89890d146101635780638fd6b15414610193578063a47d118a146101fa578063accb72d814610264575b600080fd5b341561009357600080fd5b6100a960048080359060200190919050506102f4565b6040518082815260200191505060405180910390f35b34156100ca57600080fd5b6100e96004808035906020019091908035906020019091905050610320565b005b34156100f657600080fd5b61010c600480803590602001909190505061043b565b6040518080602001828103825283818151815260200191508051906020019060200280838360005b8381101561014f578082015181840152602081019050610134565b505050509050019250505060405180910390f35b341561016e57600080fd5b6101916004808035906020019091908035600019169060200190919050506104ef565b005b341561019e57600080fd5b6101f8600480803560001916906020019091908035906020019082018035906020019080806020026020016040519081016040528093929190818152602001838360200280828437820191505050505050919050506105e9565b005b341561020557600080fd5b61020d610885565b6040518080602001828103825283818151815260200191508051906020019060200280838360005b83811015610250578082015181840152602081019050610235565b505050509050019250505060405180910390f35b341561026f57600080fd5b61028e6004808035906020019091908035906020019091905050610920565b60405180836000191660001916815260200180602001828103825283818151815260200191508051906020019060200280838360005b838110156102df5780820151818401526020810190506102c4565b50505050905001935050505060405180910390f35b6000808281548110151561030457fe5b9060005260206000209060030201600201805490509050919050565b8160008181548110151561033057fe5b906000526020600020906003020160010160003373ffffffffffffffffffffffffffffffffffffffff1673ffffffffffffffffffffffffffffffffffffffff16815260200190815260200160002060009054906101000a900460ff16151561039757600080fd5b6000838154811015156103a657fe5b9060005260206000209060030201600201828154811015156103c457fe5b906000526020600020906002020160010180548060010182816103e79190610a37565b9160005260206000209001600033909190916101000a81548173ffffffffffffffffffffffffffffffffffffffff021916908373ffffffffffffffffffffffffffffffffffffffff16021790555050505050565b610443610a63565b60008281548110151561045257fe5b90600052602060002090600302016000018054806020026020016040519081016040528092919081815260200182805480156104e357602002820191906000526020600020905b8160009054906101000a900473ffffffffffffffffffffffffffffffffffffffff1673ffffffffffffffffffffffffffffffffffffffff1681526020019060010190808311610499575b50505050509050919050565b6000808360008181548110151561050257fe5b906000526020600020906003020160010160003373ffffffffffffffffffffffffffffffffffffffff1673ffffffffffffffffffffffffffffffffffffffff16815260200190815260200160002060009054906101000a900460ff16151561056957600080fd5b60008581548110151561057857fe5b9060005260206000209060030201925082600201805490509150600183600201818180549050019150816105ac9190610a77565b508383600201838154811015156105bf57fe5b906000526020600020906002020160000181600019169055506105e28583610320565b5050505050565b600080600080805490509250600160008181805490500191508161060d9190610aa9565b5060008381548110151561061d57fe5b9060005260206000209060030201915083826000019080519060200190610645929190610adb565b50600090505b835181101561074f576001826001016000868481518110151561066a57fe5b9060200190602002015173ffffffffffffffffffffffffffffffffffffffff1673ffffffffffffffffffffffffffffffffffffffff16815260200190815260200160002060006101000a81548160ff0219169083151502179055506001600085838151811015156106d757fe5b9060200190602002015173ffffffffffffffffffffffffffffffffffffffff1673ffffffffffffffffffffffffffffffffffffffff168152602001908152602001600020805480600101828161072d9190610b65565b916000526020600020900160008590919091505550808060010191505061064b565b8160000180548060010182816107659190610a37565b9160005260206000209001600033909190916101000a81548173ffffffffffffffffffffffffffffffffffffffff021916908373ffffffffffffffffffffffffffffffffffffffff1602179055505060018260010160003373ffffffffffffffffffffffffffffffffffffffff1673ffffffffffffffffffffffffffffffffffffffff16815260200190815260200160002060006101000a81548160ff021916908315150217905550600160003373ffffffffffffffffffffffffffffffffffffffff1673ffffffffffffffffffffffffffffffffffffffff168152602001908152602001600020805480600101828161085f9190610b65565b91600052602060002090016000859091909150555061087e83866104ef565b5050505050565b61088d610b91565b600160003373ffffffffffffffffffffffffffffffffffffffff1673ffffffffffffffffffffffffffffffffffffffff16815260200190815260200160002080548060200260200160405190810160405280929190818152602001828054801561091657602002820191906000526020600020905b815481526020019060010190808311610902575b5050505050905090565b600061092a610a63565b60008481548110151561093957fe5b90600052602060002090600302016002018381548110151561095757fe5b906000526020600020906002020160000154915060008481548110151561097a57fe5b90600052602060002090600302016002018381548110151561099857fe5b9060005260206000209060020201600101805480602002602001604051908101604052809291908181526020018280548015610a2957602002820191906000526020600020905b8160009054906101000a900473ffffffffffffffffffffffffffffffffffffffff1673ffffffffffffffffffffffffffffffffffffffff16815260200190600101908083116109df575b505050505090509250929050565b815481835581811511610a5e57818360005260206000209182019101610a5d9190610ba5565b5b505050565b602060405190810160405280600081525090565b815481835581811511610aa457600202816002028360005260206000209182019101610aa39190610bca565b5b505050565b815481835581811511610ad657600302816003028360005260206000209182019101610ad59190610c01565b5b505050565b828054828255906000526020600020908101928215610b54579160200282015b82811115610b535782518260006101000a81548173ffffffffffffffffffffffffffffffffffffffff021916908373ffffffffffffffffffffffffffffffffffffffff16021790555091602001919060010190610afb565b5b509050610b619190610c40565b5090565b815481835581811511610b8c57818360005260206000209182019101610b8b9190610ba5565b5b505050565b602060405190810160405280600081525090565b610bc791905b80821115610bc3576000816000905550600101610bab565b5090565b90565b610bfe91905b80821115610bfa57600080820160009055600182016000610bf19190610c83565b50600201610bd0565b5090565b90565b610c3d91905b80821115610c395760008082016000610c209190610c83565b600282016000610c309190610ca4565b50600301610c07565b5090565b90565b610c8091905b80821115610c7c57600081816101000a81549073ffffffffffffffffffffffffffffffffffffffff021916905550600101610c46565b5090565b90565b5080546000825590600052602060002090810190610ca19190610ba5565b50565b5080546000825560020290600052602060002090810190610cc59190610bca565b505600a165627a7a723058208776a1de0543c9c8512f7db0a74fbbde78662943388454d5544ec20e9f0a8b550029",
  "source": "pragma solidity ^0.4.17;\n\ncontract Main {\n  struct Version {\n    bytes32 content;\n    address[] signedBy;\n  }\n\n  struct Document {\n    address[] authors;\n    mapping(address => bool) isAuthor;\n    Version[] versions;\n  }\n\n  Document[] documents;\n  mapping(address => uint[]) _authorOfDocuments;\n\n  function documentAuthors(uint documentId) public view returns (address[]) {\n    return documents[documentId].authors;\n  }\n\n  function documentVersionCount(uint documentId) public view returns (uint) {\n    return documents[documentId].versions.length;\n  }\n\n  function authorOfDocuments() public view returns (uint[]) {\n    return _authorOfDocuments[msg.sender];\n  }\n\n  function documentVersion(uint documentId, uint versionId) public view\n  returns (bytes32 content, address[] signedBy) {\n    content = documents[documentId].versions[versionId].content;\n    signedBy = documents[documentId].versions[versionId].signedBy;\n  }\n\n  function createDocument(bytes32 content, address[] authors) public {\n    uint documentId = documents.length;\n    documents.length += 1;\n    Document storage d = documents[documentId];\n    d.authors = authors;\n    for (uint i = 0; i < authors.length; i++) {\n      d.isAuthor[authors[i]] = true;\n       _authorOfDocuments[authors[i]].push(documentId);\n    }\n    d.authors.push(msg.sender);\n    d.isAuthor[msg.sender] = true;\n    _authorOfDocuments[msg.sender].push(documentId);\n    addVersion(documentId, content);\n  }\n\n  modifier author(uint documentId) {\n    require(documents[documentId].isAuthor[msg.sender]);\n    _;\n  }\n\n  function addVersion(uint documentId, bytes32 content) public author(documentId) {\n    Document storage d = documents[documentId];\n    uint versionId = d.versions.length;\n    d.versions.length += 1;\n    d.versions[versionId].content = content;\n    signVersion(documentId, versionId);\n  }\n\n  function signVersion(uint documentId, uint versionId) public author(documentId) {\n    documents[documentId].versions[versionId].signedBy.push(msg.sender);\n  }\n}\n",
  "sourcePath": "/home/denis/projects/blt2018/contracts/contracts/Main.sol",
  "compiler": {
    "name": "solc",
    "version": "0.4.18+commit.9cf6e910.Emscripten.clang"
  },
  "schemaVersion": "1.0.1",
  "updatedAt": "2018-02-23T12:09:13.025Z"
}